{
  "contractName": "DappToken",
  "abi": [
    {
      "constant": true,
      "inputs": [],
      "name": "totalSupply",
      "outputs": [
        {
          "name": "",
          "type": "uint256"
        }
      ],
      "payable": false,
      "stateMutability": "view",
      "type": "function"
    },
    {
      "inputs": [],
      "payable": false,
      "stateMutability": "nonpayable",
      "type": "constructor"
    }
  ],
  "bytecode": "0x6080604052348015600f57600080fd5b50620f4240600081905550607b806100286000396000f3fe6080604052348015600f57600080fd5b506004361060285760003560e01c806318160ddd14602d575b600080fd5b60336049565b6040518082815260200191505060405180910390f35b6000548156fea165627a7a72305820d5aa29e84d93c5f2c478d08e1bc755183a9693f4254722f425a8e1d72ad8bd2f0029",
  "source": "pragma solidity ^0.5.1;\n\ncontract DappToken {\n    uint256 public totalSupply;\n    // Constructor\n    constructor() public {\n        totalSupply = 1000000;\n    }\n    // Set the total number of tokens\n    // Read the total number of tokens\n}",
  "sourcePath": "/Users/yusukejindo/programming/Dapps/erc20/contracts/DappToken.sol",
  "compiler": {
    "name": "solc",
    "version": "0.5.8+commit.23d335f2.Emscripten.clang"
  },
  "schemaVersion": "3.0.10",
  "updatedAt": "2019-08-17T01:14:42.900Z",
  "devdoc": {
    "methods": {}
  },
  "userdoc": {
    "methods": {}
  }
}